{
  "contractName": "staking",
  "abi": [
    {
      "inputs": [
        {
          "internalType": "address",
          "name": "_tkn",
          "type": "address"
        },
        {
          "internalType": "address",
          "name": "_ownerWallet",
          "type": "address"
        },
        {
          "internalType": "address",
          "name": "_marketWallet",
          "type": "address"
        }
      ],
      "stateMutability": "nonpayable",
      "type": "constructor"
    },
    {
      "inputs": [],
      "name": "accumlationCutoff",
      "outputs": [
        {
          "internalType": "uint256",
          "name": "",
          "type": "uint256"
        }
      ],
      "stateMutability": "view",
      "type": "function"
    },
    {
      "inputs": [],
      "name": "currentTime",
      "outputs": [
        {
          "internalType": "uint256",
          "name": "",
          "type": "uint256"
        }
      ],
      "stateMutability": "view",
      "type": "function"
    },
    {
      "inputs": [],
      "name": "deployTime",
      "outputs": [
        {
          "internalType": "uint256",
          "name": "",
          "type": "uint256"
        }
      ],
      "stateMutability": "view",
      "type": "function"
    },
    {
      "inputs": [],
      "name": "depositFee",
      "outputs": [
        {
          "internalType": "uint256",
          "name": "",
          "type": "uint256"
        }
      ],
      "stateMutability": "view",
      "type": "function"
    },
    {
      "inputs": [
        {
          "internalType": "address",
          "name": "",
          "type": "address"
        }
      ],
      "name": "depositInfo",
      "outputs": [
        {
          "internalType": "uint256",
          "name": "totalDeposit",
          "type": "uint256"
        },
        {
          "internalType": "uint256",
          "name": "depositAmmount",
          "type": "uint256"
        },
        {
          "internalType": "uint256",
          "name": "startTime",
          "type": "uint256"
        },
        {
          "internalType": "uint256",
          "name": "endTime",
          "type": "uint256"
        },
        {
          "internalType": "uint256",
          "name": "claimedAt",
          "type": "uint256"
        },
        {
          "internalType": "uint256",
          "name": "totalYield",
          "type": "uint256"
        },
        {
          "internalType": "uint256",
          "name": "yieldPerday",
          "type": "uint256"
        },
        {
          "internalType": "uint256",
          "name": "yieldWithdrawn",
          "type": "uint256"
        },
        {
          "internalType": "uint256",
          "name": "counter",
          "type": "uint256"
        },
        {
          "internalType": "bool",
          "name": "timeStarted",
          "type": "bool"
        },
        {
          "internalType": "bool",
          "name": "locked",
          "type": "bool"
        },
        {
          "internalType": "address",
          "name": "refferedBy",
          "type": "address"
        },
        {
          "internalType": "bool",
          "name": "referred",
          "type": "bool"
        }
      ],
      "stateMutability": "view",
      "type": "function"
    },
    {
      "inputs": [],
      "name": "development",
      "outputs": [
        {
          "internalType": "address",
          "name": "",
          "type": "address"
        }
      ],
      "stateMutability": "view",
      "type": "function"
    },
    {
      "inputs": [],
      "name": "developmentFee",
      "outputs": [
        {
          "internalType": "uint256",
          "name": "",
          "type": "uint256"
        }
      ],
      "stateMutability": "view",
      "type": "function"
    },
    {
      "inputs": [],
      "name": "dividendWithdrawal",
      "outputs": [
        {
          "internalType": "uint256",
          "name": "",
          "type": "uint256"
        }
      ],
      "stateMutability": "view",
      "type": "function"
    },
    {
      "inputs": [],
      "name": "lockTime",
      "outputs": [
        {
          "internalType": "uint256",
          "name": "",
          "type": "uint256"
        }
      ],
      "stateMutability": "view",
      "type": "function"
    },
    {
      "inputs": [],
      "name": "lotteryFee",
      "outputs": [
        {
          "internalType": "uint256",
          "name": "",
          "type": "uint256"
        }
      ],
      "stateMutability": "view",
      "type": "function"
    },
    {
      "inputs": [],
      "name": "lotteryPool",
      "outputs": [
        {
          "internalType": "uint256",
          "name": "",
          "type": "uint256"
        }
      ],
      "stateMutability": "view",
      "type": "function"
    },
    {
      "inputs": [],
      "name": "marketFee",
      "outputs": [
        {
          "internalType": "uint256",
          "name": "",
          "type": "uint256"
        }
      ],
      "stateMutability": "view",
      "type": "function"
    },
    {
      "inputs": [],
      "name": "marketWallet",
      "outputs": [
        {
          "internalType": "address",
          "name": "",
          "type": "address"
        }
      ],
      "stateMutability": "view",
      "type": "function"
    },
    {
      "inputs": [],
      "name": "maxDepositTkns",
      "outputs": [
        {
          "internalType": "uint256",
          "name": "",
          "type": "uint256"
        }
      ],
      "stateMutability": "view",
      "type": "function"
    },
    {
      "inputs": [],
      "name": "minDepositTkns",
      "outputs": [
        {
          "internalType": "uint256",
          "name": "",
          "type": "uint256"
        }
      ],
      "stateMutability": "view",
      "type": "function"
    },
    {
      "inputs": [],
      "name": "owner",
      "outputs": [
        {
          "internalType": "address",
          "name": "",
          "type": "address"
        }
      ],
      "stateMutability": "view",
      "type": "function"
    },
    {
      "inputs": [],
      "name": "ownerFee",
      "outputs": [
        {
          "internalType": "uint256",
          "name": "",
          "type": "uint256"
        }
      ],
      "stateMutability": "view",
      "type": "function"
    },
    {
      "inputs": [],
      "name": "ownerWallet",
      "outputs": [
        {
          "internalType": "address",
          "name": "",
          "type": "address"
        }
      ],
      "stateMutability": "view",
      "type": "function"
    },
    {
      "inputs": [],
      "name": "percentDivider",
      "outputs": [
        {
          "internalType": "uint256",
          "name": "",
          "type": "uint256"
        }
      ],
      "stateMutability": "view",
      "type": "function"
    },
    {
      "inputs": [],
      "name": "referalFee",
      "outputs": [
        {
          "internalType": "uint256",
          "name": "",
          "type": "uint256"
        }
      ],
      "stateMutability": "view",
      "type": "function"
    },
    {
      "inputs": [
        {
          "internalType": "address",
          "name": "",
          "type": "address"
        },
        {
          "internalType": "uint256",
          "name": "",
          "type": "uint256"
        }
      ],
      "name": "teamInfo",
      "outputs": [
        {
          "internalType": "address",
          "name": "",
          "type": "address"
        }
      ],
      "stateMutability": "view",
      "type": "function"
    },
    {
      "inputs": [
        {
          "internalType": "uint256",
          "name": "",
          "type": "uint256"
        },
        {
          "internalType": "uint256",
          "name": "",
          "type": "uint256"
        }
      ],
      "name": "weeklyTeams",
      "outputs": [
        {
          "internalType": "address",
          "name": "",
          "type": "address"
        }
      ],
      "stateMutability": "view",
      "type": "function"
    },
    {
      "inputs": [],
      "name": "wolfPacks",
      "outputs": [
        {
          "internalType": "uint256",
          "name": "",
          "type": "uint256"
        }
      ],
      "stateMutability": "view",
      "type": "function"
    },
    {
      "inputs": [],
      "name": "yield",
      "outputs": [
        {
          "internalType": "uint256",
          "name": "",
          "type": "uint256"
        }
      ],
      "stateMutability": "view",
      "type": "function"
    },
    {
      "inputs": [
        {
          "internalType": "uint256",
          "name": "_ammount",
          "type": "uint256"
        },
        {
          "internalType": "address",
          "name": "upliner",
          "type": "address"
        }
      ],
      "name": "deposit",
      "outputs": [],
      "stateMutability": "nonpayable",
      "type": "function"
    },
    {
      "inputs": [],
      "name": "withDraw",
      "outputs": [],
      "stateMutability": "nonpayable",
      "type": "function"
    },
    {
      "inputs": [],
      "name": "claimLottery",
      "outputs": [],
      "stateMutability": "nonpayable",
      "type": "function"
    },
    {
      "inputs": [],
      "name": "weeklyTimer",
      "outputs": [
        {
          "internalType": "uint256",
          "name": "",
          "type": "uint256"
        }
      ],
      "stateMutability": "nonpayable",
      "type": "function"
    },
    {
      "inputs": [],
      "name": "weeklyLottery",
      "outputs": [],
      "stateMutability": "nonpayable",
      "type": "function"
    },
    {
      "inputs": [
        {
          "internalType": "address",
          "name": "upliner",
          "type": "address"
        }
      ],
      "name": "calculateTeamTotalDeposit",
      "outputs": [
        {
          "internalType": "uint256",
          "name": "",
          "type": "uint256"
        }
      ],
      "stateMutability": "view",
      "type": "function"
    },
    {
      "inputs": [
        {
          "internalType": "address",
          "name": "_upliner",
          "type": "address"
        }
      ],
      "name": "calcTeamReward",
      "outputs": [
        {
          "internalType": "uint256",
          "name": "",
          "type": "uint256"
        }
      ],
      "stateMutability": "nonpayable",
      "type": "function"
    }
  ],
  "bytecode": "0x6080604052600a600e556014600f55610258601055603c601155620d2f006012556064601355600f601455601e601555601e601655601e601755600a6018556103e86019553480156200005157600080fd5b506040516200233a3803806200233a8339810160408190526200007491620001fa565b600580546001600160a01b03199081163317909155600480546001600160a01b038616921682178155604080516376809ce360e01b815290516376809ce3928281019260209291908290030181865afa158015620000d6573d6000803e3d6000fd5b505050506040513d601f19601f82011682018060405250810190620000fc919062000244565b6200010990600a62000373565b6200011690603262000388565b600c5560048054604080516376809ce360e01b815290516001600160a01b03909216926376809ce39282820192602092908290030181865afa15801562000161573d6000803e3d6000fd5b505050506040513d601f19601f8201168201806040525081019062000187919062000244565b6200019490600a62000373565b620001a390620186a062000388565b600d55600680546001600160a01b039384166001600160a01b031991821617909155600780549290931691161790555042600a55620003a2565b80516001600160a01b0381168114620001f557600080fd5b919050565b6000806000606084860312156200021057600080fd5b6200021b84620001dd565b92506200022b60208501620001dd565b91506200023b60408501620001dd565b90509250925092565b6000602082840312156200025757600080fd5b5051919050565b634e487b7160e01b600052601160045260246000fd5b600181815b80851115620002b55781600019048211156200029957620002996200025e565b80851615620002a757918102915b93841c939080029062000279565b509250929050565b600082620002ce575060016200036d565b81620002dd575060006200036d565b8160018114620002f65760028114620003015762000321565b60019150506200036d565b60ff8411156200031557620003156200025e565b50506001821b6200036d565b5060208310610133831016604e8410600b841016171562000346575081810a6200036d565b62000352838362000274565b80600019048211156200036957620003696200025e565b0290505b92915050565b6000620003818383620002bd565b9392505050565b80820281158282048414176200036d576200036d6200025e565b611f8880620003b26000396000f3fe608060405234801561001057600080fd5b50600436106101e55760003560e01c806370a580e01161010f578063a5f3d003116100a2578063d5b2a01a11610071578063d5b2a01a14610439578063e4440a8614610442578063e4642ce414610455578063fe6f1b051461046857600080fd5b8063a5f3d00314610416578063a60723281461041f578063d18e81b314610427578063d3ce261d1461043057600080fd5b80638da5cb5b116100de5780638da5cb5b146103d55780639335dcb7146103e8578063a4747485146103fb578063a5e48b861461040e57600080fd5b806370a580e0146103a757806378aa08ed146103b05780637a40624b146103b95780637b929c27146103c257600080fd5b80632c831633116101875780636344598911610156578063634459891461028257806367a52793146103785780636e553f65146103815780636f362c921461039457600080fd5b80632c8316331461023d57806346585f741461024657806351aa79a81461024e57806351f3b7d21461027957600080fd5b80630f5a2a4d116101c35780630f5a2a4d146102185780630fdb1c1014610221578063285939841461022b5780632c204ddb1461023457600080fd5b80630b2f1a16146101ea5780630ccf2156146102065780630d6680871461020f575b600080fd5b6101f360115481565b6040519081526020015b60405180910390f35b6101f360165481565b6101f360105481565b6101f360145481565b610229610471565b005b6101f3600e5481565b6101f3600d5481565b6101f360095481565b6101f3610556565b61026161025c366004611cce565b61057c565b6040516001600160a01b0390911681526020016101fd565b6101f360125481565b610307610290366004611d0c565b60006020819052908152604090208054600182015460028301546003840154600485015460058601546006870154600788015460088901546009909901549798969795969495939492939192909160ff8082169161010081048216916001600160a01b036201000083041691600160b01b9004168d565b604080519d8e5260208e019c909c529a8c019990995260608b019790975260808a019590955260a089019390935260c088019190915260e0870152610100860152151561012085015215156101408401526001600160a01b031661016083015215156101808201526101a0016101fd565b6101f360135481565b61022961038f366004611d27565b6105b4565b6102616103a2366004611d53565b610d06565b6101f3600f5481565b6101f360185481565b6101f3600a5481565b600854610261906001600160a01b031681565b600554610261906001600160a01b031681565b600654610261906001600160a01b031681565b6101f3610409366004611d0c565b610d22565b610229610de9565b6101f360175481565b610229610e0c565b6101f3600b5481565b6101f3600c5481565b6101f360155481565b600754610261906001600160a01b031681565b6101f3610463366004611d0c565b611032565b6101f360195481565b3360009081526020819052604090206009015460ff1615156001146104dd5760405162461bcd60e51b815260206004820152601c60248201527f796f75722074696d65206973206e6f742073746172746564207965740000000060448201526064015b60405180910390fd5b601154336000908152602081905260409020600201546104fd9190611d93565b42101561054c5760405162461bcd60e51b815260206004820152601f60248201527f796f752063616e277420776974686472617720617420746861742074696d650060448201526064016104d4565b61055461196f565b565b6000603c600a54426105689190611dac565b6105729190611dbf565b600b819055919050565b6002602052816000526040600020818154811061059857600080fd5b6000918252602090912001546001600160a01b03169150829050565b6105bc610556565b5033600090815260208190526040902060090154610100900460ff16156106255760405162461bcd60e51b815260206004820152601860248201527f596f7520616c726561647920706172746963697061746564000000000000000060448201526064016104d4565b600c5482101580156106395750600d548211155b6106915760405162461bcd60e51b815260206004820152602360248201527f706c6561736520656e746572206d696e696d756d20746f6b656e20616d6d6f756044820152626e747360e81b60648201526084016104d4565b336001600160a01b038216036106e95760405162461bcd60e51b815260206004820152601960248201527f796f752063616e27742072656666657220796f757273656c660000000000000060448201526064016104d4565b336000908152602081905260409020600901546201000090046001600160a01b03166108e2576001600160a01b038116600090815260208190526040902060090154610100900460ff16801561074757506001600160a01b03811615155b156108b25733600090815260208190526040808220600901805475ffffffffffffffffffffffffffffffffffffffff00001916620100006001600160a01b03861690810291909117909155825281206008018054916107a583611de1565b90915550506004546019546014546001600160a01b03909216916323b872dd9133918591906107d49088611dfa565b6107de9190611dbf565b6040517fffffffff0000000000000000000000000000000000000000000000000000000060e086901b1681526001600160a01b03938416600482015292909116602483015260448201526064016020604051808303816000875af115801561084a573d6000803e3d6000fd5b505050506040513d601f19601f8201168201806040525081019061086e9190611e11565b5033600090815260208190526040902060090180547fffffffffffffffffff00ffffffffffffffffffffffffffffffffffffffffffff16600160b01b1790556108e2565b336000908152602081905260409020600901805475ffffffffffffffffffffffffffffffffffffffff0000191690555b6000601954601354846108f59190611dfa565b6108ff9190611dbf565b90506000601954601554856109149190611dfa565b61091e9190611dbf565b90506000601954601654866109339190611dfa565b61093d9190611dbf565b90506000601954601754876109529190611dfa565b61095c9190611dbf565b90506019546018548761096f9190611dfa565b6109799190611dbf565b6009600082825461098a9190611d93565b9091555050600480546006546040516323b872dd60e01b815233938101939093526001600160a01b0390811660248401526044830186905216906323b872dd906064016020604051808303816000875af11580156109ec573d6000803e3d6000fd5b505050506040513d601f19601f82011682018060405250810190610a109190611e11565b50600480546007546040516323b872dd60e01b815233938101939093526001600160a01b0390811660248401526044830185905216906323b872dd906064016020604051808303816000875af1158015610a6e573d6000803e3d6000fd5b505050506040513d601f19601f82011682018060405250810190610a929190611e11565b50600480546008546040516323b872dd60e01b815233938101939093526001600160a01b0390811660248401526044830184905216906323b872dd906064016020604051808303816000875af1158015610af0573d6000803e3d6000fd5b505050506040513d601f19601f82011682018060405250810190610b149190611e11565b50610b1f8487611dac565b3360009081526020819052604081206001810183905580549298508892909190610b4a908490611d93565b90915550506001600160a01b0385166000908152600160208181526040808420805493840181558452818420909201805473ffffffffffffffffffffffffffffffffffffffff19163390811790915583528290529020426002909101819055601054610bb591611d93565b3360008181526020819052604090819020600301929092556004805492516323b872dd60e01b815290810191909152306024820152604481018890526001600160a01b03909116906323b872dd906064016020604051808303816000875af1158015610c25573d6000803e3d6000fd5b505050506040513d601f19601f82011682018060405250810190610c499190611e11565b50600b54600090815260026020908152604082208054600181018255908352912001805473ffffffffffffffffffffffffffffffffffffffff19166001600160a01b038716179055601954610ca087610258611dfa565b610caa9190611dbf565b33600090815260208190526040902060050155601954600e54610ccd9088611dfa565b610cd79190611dbf565b3360009081526020819052604090206006810191909155600901805461ffff1916610101179055505050505050565b6001602052816000526040600020818154811061059857600080fd5b600080805b6001600160a01b038416600090815260016020526040902054811015610dbb576001600160a01b0384166000908152600160205260408120805483908110610d7157610d71611e33565b60009182526020808320909101546001600160a01b031680835290829052604090912060010154909150610da59084611d93565b9250508080610db390611de1565b915050610d27565b506001600160a01b038316600090815260208190526040902060010154610de29082611d93565b9392505050565b610df1610556565b600b541461055457610e01610556565b600b55610554611ba5565b336000908152600360209081526040808320600b54845290915290205460ff1615610e795760405162461bcd60e51b815260206004820152600f60248201527f616c726561647920636c61696d6564000000000000000000000000000000000060448201526064016104d4565b60095460609060005b600b5460009081526002602052604090205481101561102d57600b546000908152600260205260408120805483908110610ebe57610ebe611e33565b6000918252602090912001546001600160a01b03169050610ede81610d22565b848381518110610ef057610ef0611e33565b6020908102919091018101919091523360009081529081905260409020600901546001600160a01b0380831662010000909204160361101a5760006064600954868581518110610f4257610f42611e33565b6020026020010151600080336001600160a01b03166001600160a01b0316815260200190815260200160002060010154610f7c9190611dbf565b610f869190611dfa565b610f909190611dbf565b600480546005546040516323b872dd60e01b81526001600160a01b03918216938101939093523360248401526044830184905292935091909116906323b872dd906064016020604051808303816000875af1158015610ff3573d6000803e3d6000fd5b505050506040513d601f19601f820116820180604052508101906110179190611e11565b50505b508061102581611de1565b915050610e82565b505050565b60008080805b6001600160a01b038516600090815260016020526040902054811015611967576001600160a01b038516600090815260016020526040812080548390811061108257611082611e33565b60009182526020808320909101546001600160a01b0316808352908290526040909120600101549091506110b69085611d93565b93506002821115801561114a575060048054604080516376809ce360e01b815290516001600160a01b03909216926376809ce39282820192602092908290030181865afa15801561110b573d6000803e3d6000fd5b505050506040513d601f19601f8201168201806040525081019061112f9190611e49565b61113a90600a611f46565b61114690611388611dfa565b8410155b15611204576019546001600160a01b038216600090815260208190526040902060019081015461117991611dfa565b6111839190611dbf565b6004805460405163a9059cbb60e01b81526001600160a01b038581169382019390935260248101849052929550169063a9059cbb906044016020604051808303816000875af11580156111da573d6000803e3d6000fd5b505050506040513d601f19601f820116820180604052508101906111fe9190611e11565b50611954565b60038211158015611296575060048054604080516376809ce360e01b815290516001600160a01b03909216926376809ce39282820192602092908290030181865afa158015611257573d6000803e3d6000fd5b505050506040513d601f19601f8201168201806040525081019061127b9190611e49565b61128690600a611f46565b61129290612710611dfa565b8410155b156112c5576019546001600160a01b038216600090815260208190526040902060010154611179906002611dfa565b60048211158015611357575060048054604080516376809ce360e01b815290516001600160a01b03909216926376809ce39282820192602092908290030181865afa158015611318573d6000803e3d6000fd5b505050506040513d601f19601f8201168201806040525081019061133c9190611e49565b61134790600a611f46565b61135390613a98611dfa565b8410155b15611386576019546001600160a01b038216600090815260208190526040902060010154611179906003611dfa565b60058211158015611418575060048054604080516376809ce360e01b815290516001600160a01b03909216926376809ce39282820192602092908290030181865afa1580156113d9573d6000803e3d6000fd5b505050506040513d601f19601f820116820180604052508101906113fd9190611e49565b61140890600a611f46565b61141490614e20611dfa565b8410155b15611447576019546001600160a01b038216600090815260208190526040902060010154611179906004611dfa565b600682111580156114d9575060048054604080516376809ce360e01b815290516001600160a01b03909216926376809ce39282820192602092908290030181865afa15801561149a573d6000803e3d6000fd5b505050506040513d601f19601f820116820180604052508101906114be9190611e49565b6114c990600a611f46565b6114d5906161a8611dfa565b8410155b15611508576019546001600160a01b038216600090815260208190526040902060010154611179906005611dfa565b6007821115801561159a575060048054604080516376809ce360e01b815290516001600160a01b03909216926376809ce39282820192602092908290030181865afa15801561155b573d6000803e3d6000fd5b505050506040513d601f19601f8201168201806040525081019061157f9190611e49565b61158a90600a611f46565b61159690617530611dfa565b8410155b156115c9576019546001600160a01b038216600090815260208190526040902060010154611179906006611dfa565b6008821115801561165b575060048054604080516376809ce360e01b815290516001600160a01b03909216926376809ce39282820192602092908290030181865afa15801561161c573d6000803e3d6000fd5b505050506040513d601f19601f820116820180604052508101906116409190611e49565b61164b90600a611f46565b611657906188b8611dfa565b8410155b1561168a576019546001600160a01b038216600090815260208190526040902060010154611179906007611dfa565b6009821115801561171c575060048054604080516376809ce360e01b815290516001600160a01b03909216926376809ce39282820192602092908290030181865afa1580156116dd573d6000803e3d6000fd5b505050506040513d601f19601f820116820180604052508101906117019190611e49565b61170c90600a611f46565b61171890619c40611dfa565b8410155b1561174b576019546001600160a01b038216600090815260208190526040902060010154611179906008611dfa565b600a82111580156117dd575060048054604080516376809ce360e01b815290516001600160a01b03909216926376809ce39282820192602092908290030181865afa15801561179e573d6000803e3d6000fd5b505050506040513d601f19601f820116820180604052508101906117c29190611e49565b6117cd90600a611f46565b6117d99061afc8611dfa565b8410155b1561180c576019546001600160a01b038216600090815260208190526040902060010154611179906009611dfa565b600b821115801561189e575060048054604080516376809ce360e01b815290516001600160a01b03909216926376809ce39282820192602092908290030181865afa15801561185f573d6000803e3d6000fd5b505050506040513d601f19601f820116820180604052508101906118839190611e49565b61188e90600a611f46565b61189a9061c350611dfa565b8410155b15611954576019546001600160a01b0382166000908152602081905260409020600101546118cd90600a611dfa565b6118d79190611dbf565b6004805460405163a9059cbb60e01b81526001600160a01b038581169382019390935260248101849052929550169063a9059cbb906044016020604051808303816000875af115801561192e573d6000803e3d6000fd5b505050506040513d601f19601f820116820180604052508101906119529190611e11565b505b508061195f81611de1565b915050611038565b509392505050565b3360009081526020819052604081206006015461198e90603c90611dbf565b336000908152602081905260409020600781015460059091015491925011611ba257336000908152602081905260408120600201546119cd9042611dac565b905060006119db8284611dfa565b336000908152602081905260409020600581015460079091015491925090611a039083611d93565b1115611aec573360009081526020819052604081206007810154600590910154611a2d9190611dac565b600480546005546040516323b872dd60e01b81526001600160a01b03918216938101939093523360248401526044830184905292935091909116906323b872dd906064016020604051808303816000875af1158015611a90573d6000803e3d6000fd5b505050506040513d601f19601f82011682018060405250810190611ab49190611e11565b5033600090815260208190526040902060070154611ad3908290611d93565b3360009081526020819052604090206007015550505050565b600480546005546040516323b872dd60e01b81526001600160a01b03918216938101939093523360248401526044830184905216906323b872dd906064016020604051808303816000875af1158015611b49573d6000803e3d6000fd5b505050506040513d601f19601f82011682018060405250810190611b6d9190611e11565b5033600090815260208190526040902060070154611b8c908290611d93565b3360009081526020819052604090206007015550505b50565b600954606090600090815b600b54600090815260026020526040902054811015611cc857600b546000908152600260205260408120805483908110611bec57611bec611e33565b6000918252602090912001546001600160a01b03169050611c0c81610d22565b858381518110611c1e57611c1e611e33565b602090810291909101015284611c35600184611dac565b81518110611c4557611c45611e33565b6020026020010151858381518110611c5f57611c5f611e33565b60200260200101511115611c8e57848281518110611c7f57611c7f611e33565b60200260200101519350611cb5565b84611c9a600184611dac565b81518110611caa57611caa611e33565b602002602001015193505b5080611cc081611de1565b915050611bb0565b50505050565b60008060408385031215611ce157600080fd5b50508035926020909101359150565b80356001600160a01b0381168114611d0757600080fd5b919050565b600060208284031215611d1e57600080fd5b610de282611cf0565b60008060408385031215611d3a57600080fd5b82359150611d4a60208401611cf0565b90509250929050565b60008060408385031215611d6657600080fd5b611d6f83611cf0565b946020939093013593505050565b634e487b7160e01b600052601160045260246000fd5b80820180821115611da657611da6611d7d565b92915050565b81810381811115611da657611da6611d7d565b600082611ddc57634e487b7160e01b600052601260045260246000fd5b500490565b600060018201611df357611df3611d7d565b5060010190565b8082028115828204841417611da657611da6611d7d565b600060208284031215611e2357600080fd5b81518015158114610de257600080fd5b634e487b7160e01b600052603260045260246000fd5b600060208284031215611e5b57600080fd5b5051919050565b600181815b80851115611e9d578160001904821115611e8357611e83611d7d565b80851615611e9057918102915b93841c9390800290611e67565b509250929050565b600082611eb457506001611da6565b81611ec157506000611da6565b8160018114611ed75760028114611ee157611efd565b6001915050611da6565b60ff841115611ef257611ef2611d7d565b50506001821b611da6565b5060208310610133831016604e8410600b8410161715611f20575081810a611da6565b611f2a8383611e62565b8060001904821115611f3e57611f3e611d7d565b029392505050565b6000610de28383611ea556fea2646970667358221220aaeaf992bb29ebcee6df1cd8e77c167b5ea62da99ae7b5970ff908692fa089df64736f6c63430008120033",
  "immutableReferences": {},
  "source": "// SPDX-License-Identifier: MIT\npragma solidity ^0.8.17;\n\ninterface IERC20 {\n    function totalSupply() external view returns (uint256);\n\n    function decimal() external view returns (uint256);\n\n    function balanceOf(address tokenOwner)\n        external\n        view\n        returns (uint256 balance);\n\n    function allowance(address tokenOwner, address spender)\n        external\n        view\n        returns (uint256 remaining);\n\n    function transfer(address to, uint256 tokens)\n        external\n        returns (bool success);\n\n    function approve(address spender, uint256 tokens)\n        external\n        returns (bool success);\n\n    function transferFrom(\n        address from,\n        address to,\n        uint256 tokens\n    ) external returns (bool success);\n\n    event Transfer(address indexed from, address indexed to, uint256 tokens);\n    event Approval(\n        address indexed tokenOwner,\n        address indexed spender,\n        uint256 tokens\n    );\n}\n\ncontract staking {\n    struct user {\n        uint256 totalDeposit;\n        uint256 depositAmmount;\n        uint256 startTime;\n        uint256 endTime;\n        uint256 claimedAt;\n        uint256 totalYield;\n        uint256 yieldPerday;\n        uint256 yieldWithdrawn;\n        uint256 counter;\n        bool timeStarted;\n        bool locked;\n        address refferedBy;\n        // uint256 teamId;\n        bool referred;\n    }\n\n    mapping(address => user) public depositInfo;\n    mapping(address => address[]) public teamInfo;\n    // mapping(uint256 => address) public teamIds;\n    mapping(uint256 => address[]) public weeklyTeams;\n    mapping(address => mapping(uint256 => bool)) isLotteryClaimed;\n\n    IERC20 BUSD;\n    address public owner;\n    address public ownerWallet;\n    address public marketWallet;\n    address public development;\n    uint256 public lotteryPool;\n    uint256 public deployTime;\n    uint256 public currentTime;\n\n    uint256 public minDepositTkns;\n    uint256 public maxDepositTkns;\n    uint256 public yield = 10;\n    uint256 public wolfPacks = 20;\n    uint256 public lockTime = 10 minutes;\n    uint256 public dividendWithdrawal = 1 minutes;\n    uint256 public accumlationCutoff = 10 days;\n    uint256 public depositFee = 100;\n    uint256 public referalFee = 15;\n    uint256 public ownerFee = 30;\n    uint256 public marketFee = 30;\n    uint256 public developmentFee = 30;\n    uint256 public lotteryFee = 10;\n    uint256 public percentDivider = 1000;\n    uint256[10] levels;\n\n    constructor(\n        address _tkn,\n        address _ownerWallet,\n        address _marketWallet\n    ) {\n        owner = msg.sender;\n        BUSD = IERC20(_tkn);\n        minDepositTkns = 50 * (10**BUSD.decimal());\n        maxDepositTkns = 100000 * (10**BUSD.decimal());\n        ownerWallet = _ownerWallet;\n        marketWallet = _marketWallet;\n        deployTime = block.timestamp;\n    }\n\n    function deposit(uint256 _ammount, address upliner) public {\n        weeklyTimer();\n        require(\n            depositInfo[msg.sender].locked == false,\n            \"You already participated\"\n        );\n        require(\n            _ammount >= minDepositTkns && _ammount <= maxDepositTkns,\n            \"please enter minimum token ammounts\"\n        );\n        require(upliner != msg.sender, \"you can't reffer yourself\");\n        if (depositInfo[msg.sender].refferedBy == address(0)) {\n            if (depositInfo[upliner].locked && upliner != address(0)) {\n                depositInfo[msg.sender].refferedBy = upliner;\n                depositInfo[upliner].counter++;\n                BUSD.transferFrom(\n                    msg.sender,\n                    upliner,\n                    ((_ammount * referalFee) / percentDivider)\n                );\n                // teamIds[depositInfo[upliner].counter++];\n                depositInfo[msg.sender].referred = true;\n            } else {\n                depositInfo[msg.sender].refferedBy = address(0);\n            }\n        }\n        uint256 _depositFee = (_ammount * depositFee) / percentDivider;\n        uint256 _ownerFee = (_ammount * ownerFee) / percentDivider;\n        uint256 _marketFee = (_ammount * marketFee) / percentDivider;\n        uint256 _developmentFee = (_ammount * developmentFee) / percentDivider;\n        lotteryPool += (_ammount * lotteryFee) / percentDivider;\n        BUSD.transferFrom(msg.sender, ownerWallet, _ownerFee);\n        BUSD.transferFrom(msg.sender, marketWallet, _marketFee);\n        BUSD.transferFrom(msg.sender, development, _developmentFee);\n        _ammount -= _depositFee;\n        depositInfo[msg.sender].depositAmmount = _ammount;\n        depositInfo[msg.sender].totalDeposit += _ammount;\n        teamInfo[upliner].push(msg.sender);\n        depositInfo[msg.sender].startTime = block.timestamp;\n        depositInfo[msg.sender].endTime = block.timestamp + lockTime;\n        BUSD.transferFrom(msg.sender, address(this), _ammount);\n        weeklyTeams[currentTime].push(upliner);\n        depositInfo[msg.sender].totalYield = ((_ammount * 600) /\n            percentDivider);\n        depositInfo[msg.sender].yieldPerday = ((_ammount * yield) /\n            percentDivider);\n        depositInfo[msg.sender].timeStarted = true;\n        depositInfo[msg.sender].locked = true;\n    }\n\n    function withDraw() public {\n        require(\n            depositInfo[msg.sender].timeStarted == true,\n            \"your time is not started yet\"\n        );\n        require(\n            block.timestamp >=\n                depositInfo[msg.sender].startTime + dividendWithdrawal,\n            \"you can't withdraw at that time\"\n        );\n        calcYield();\n    }\n\n    function lottery() internal {\n        // uint256 totalTeams = weeklyTeams[currentTime].length;\n        uint256[] memory teamsTotalDeposit;\n        uint256 winnerTeam;\n        uint256 claimableReward = lotteryPool;\n        lotteryPool = claimableReward;\n        for (uint256 i = 0; i < weeklyTeams[currentTime].length; i++) {\n            address upliner = weeklyTeams[currentTime][i];\n            teamsTotalDeposit[i] = (calculateTeamTotalDeposit(upliner));\n            if (teamsTotalDeposit[i] > teamsTotalDeposit[i - 1]) {\n                winnerTeam = teamsTotalDeposit[i];\n            } else {\n                winnerTeam = teamsTotalDeposit[i - 1];\n            }\n        }\n    }\n\n    function claimLottery() public {\n        require(!isLotteryClaimed[msg.sender][currentTime], \"already claimed\");\n        uint256[] memory teamsTotalDeposit;\n        // uint256 winnerTeam;\n        uint256 claimableReward = lotteryPool;\n        lotteryPool = claimableReward;\n        for (uint256 i = 0; i < weeklyTeams[currentTime].length; i++) {\n            address upliner = weeklyTeams[currentTime][i];\n            teamsTotalDeposit[i] = (calculateTeamTotalDeposit(upliner));\n            if (depositInfo[msg.sender].refferedBy == upliner) {\n                uint256 claimReward = (((depositInfo[msg.sender]\n                    .depositAmmount / teamsTotalDeposit[i]) * lotteryPool) /\n                    100);\n                BUSD.transferFrom(owner, msg.sender, claimReward);\n            }\n        }\n    }\n\n    function calcYield() internal {\n        uint256 yieldTime = depositInfo[msg.sender].yieldPerday / 1 minutes;\n        if (\n            depositInfo[msg.sender].totalYield >=\n            depositInfo[msg.sender].yieldWithdrawn\n        ) {\n            uint256 currentduration = (block.timestamp -\n                depositInfo[msg.sender].startTime);\n            uint256 _profit = yieldTime * currentduration;\n\n            if (\n                _profit + depositInfo[msg.sender].yieldWithdrawn >\n                depositInfo[msg.sender].totalYield\n            ) {\n                uint256 remProfit = depositInfo[msg.sender].totalYield -\n                    depositInfo[msg.sender].yieldWithdrawn;\n                BUSD.transferFrom(owner, msg.sender, remProfit);\n                depositInfo[msg.sender].yieldWithdrawn =\n                    depositInfo[msg.sender].yieldWithdrawn +\n                    remProfit;\n            } else {\n                BUSD.transferFrom(owner, msg.sender, _profit);\n                depositInfo[msg.sender].yieldWithdrawn =\n                    depositInfo[msg.sender].yieldWithdrawn +\n                    _profit;\n            }\n        }\n    }\n\n    function weeklyTimer() public returns (uint256) {\n        currentTime = (block.timestamp - deployTime) / 1 minutes;\n        // require(currentTime > 7 days,\"sorry time is not completed yet\");\n        return currentTime;\n    }\n\n    function weeklyLottery() public {\n        if (currentTime != weeklyTimer()) {\n            currentTime = weeklyTimer();\n            lottery();\n        }\n    }\n\n    function calculateTeamTotalDeposit(address upliner)\n        public\n        view\n        returns (uint256)\n    {\n        uint256 sumOfTeamAmount = 0;\n        for (uint256 i = 0; i < teamInfo[upliner].length; i++) {\n            address memberAddress = teamInfo[upliner][i];\n            sumOfTeamAmount += depositInfo[memberAddress].depositAmmount;\n        }\n        sumOfTeamAmount += depositInfo[upliner].depositAmmount;\n        return sumOfTeamAmount;\n    }\n\n    function calcTeamReward(address _upliner) public returns (uint256) {\n        uint256 sumOfTeamAmount = 0;\n        uint256 teamReward = 0;\n        // address[] memory memberAddress;\n        // uint256 level = 0;\n        for (uint256 i = 0; i < teamInfo[_upliner].length; i++) {\n            address memberAddress = teamInfo[_upliner][i];\n            sumOfTeamAmount += depositInfo[memberAddress].depositAmmount;\n            if (i <= 2 && sumOfTeamAmount >= 5000 * (10**BUSD.decimal())) {\n                teamReward =\n                    (depositInfo[memberAddress].depositAmmount * 1) /\n                    percentDivider;\n                BUSD.transfer(memberAddress, teamReward);\n            } else if (\n                i <= 3 && sumOfTeamAmount >= 10000 * (10**BUSD.decimal())\n            ) {\n                teamReward =\n                    (depositInfo[memberAddress].depositAmmount * 2) /\n                    percentDivider;\n                BUSD.transfer(memberAddress, teamReward);\n            } else if (\n                i <= 4 && sumOfTeamAmount >= 15000 * (10**BUSD.decimal())\n            ) {\n                teamReward =\n                    (depositInfo[memberAddress].depositAmmount * 3) /\n                    percentDivider;\n                BUSD.transfer(memberAddress, teamReward);\n            } else if (\n                i <= 5 && sumOfTeamAmount >= 20000 * (10**BUSD.decimal())\n            ) {\n                teamReward =\n                    (depositInfo[memberAddress].depositAmmount * 4) /\n                    percentDivider;\n                BUSD.transfer(memberAddress, teamReward);\n            } else if (\n                i <= 6 && sumOfTeamAmount >= 25000 * (10**BUSD.decimal())\n            ) {\n                teamReward =\n                    (depositInfo[memberAddress].depositAmmount * 5) /\n                    percentDivider;\n                BUSD.transfer(memberAddress, teamReward);\n            } else if (\n                i <= 7 && sumOfTeamAmount >= 30000 * (10**BUSD.decimal())\n            ) {\n                teamReward =\n                    (depositInfo[memberAddress].depositAmmount * 6) /\n                    percentDivider;\n                BUSD.transfer(memberAddress, teamReward);\n            } else if (\n                i <= 8 && sumOfTeamAmount >= 35000 * (10**BUSD.decimal())\n            ) {\n                teamReward =\n                    (depositInfo[memberAddress].depositAmmount * 7) /\n                    percentDivider;\n                BUSD.transfer(memberAddress, teamReward);\n            } else if (\n                i <= 9 && sumOfTeamAmount >= 40000 * (10**BUSD.decimal())\n            ) {\n                teamReward =\n                    (depositInfo[memberAddress].depositAmmount * 8) /\n                    percentDivider;\n                BUSD.transfer(memberAddress, teamReward);\n            } else if (\n                i <= 10 && sumOfTeamAmount >= 45000 * (10**BUSD.decimal())\n            ) {\n                teamReward =\n                    (depositInfo[memberAddress].depositAmmount * 9) /\n                    percentDivider;\n                BUSD.transfer(memberAddress, teamReward);\n            } else if (\n                i <= 11 && sumOfTeamAmount >= 50000 * (10**BUSD.decimal())\n            ) {\n                teamReward =\n                    (depositInfo[memberAddress].depositAmmount * 10) /\n                    percentDivider;\n                BUSD.transfer(memberAddress, teamReward);\n            }\n        }\n        // return sumOfTeamAmount;\n        return teamReward;\n    }\n}\n",
  "sourcePath": "/home/rayzia/Desktop/busdTask/contracts/tokenTask.sol",
  "compiler": {
    "name": "solc",
    "version": "0.8.18+commit.87f61d96.Emscripten.clang"
  },
  "schemaVersion": "3.4.10",
  "updatedAt": "2023-02-02T07:21:43.178Z",
  "devdoc": {
    "kind": "dev",
    "methods": {},
    "version": 1
  },
  "userdoc": {
    "kind": "user",
    "methods": {},
    "version": 1
  }
}